:100000000C9462000C948A000C948A000C948A0070
:100010000C948A000C948A000C948A000C948A0038
:100020000C948A000C948A000C948A000C948A0028
:100030000C948A000C948A000C948A000C948A0018
:100040000C94E4050C948A000C948A000C948A00A9
:100050000C948A000C948A000C948A000C948A00F8
:100060000C948A000C948A000000000023002600F3
:10007000290000000000240027002A0000000000E2
:10008000250028002B0004040404040404040202D4
:100090000202020203030303030301020408102007
:1000A0004080010204081020010204081020000012
:1000B0000008000201000003040700000000000027
:1000C00000009D0811241FBECFEFD8E0DEBFCDBFDA
:1000D00011E0A0E0B1E0EEE1F8E102C005900D9280
:1000E000AC31B107D9F721E0ACE1B1E001C01D921C
:1000F000A537B207E1F710E0C2E6D0E004C02197CF
:10010000FE010E94A709C136D107C9F70E942E0639
:100110000C940D0C0C9400004F925F926F927F92A2
:100120008F929F92AF92BF92CF92DF92EF92FF9207
:100130000F931F93CF93DF93C0904101D090420162
:10014000E0904301F090440180913D0190913E0187
:10015000A0913F01B0914001C81AD90AEA0AFB0AEE
:10016000609145017091460180914701909148014D
:100170009B01AC010E94A00B4B015C0160914D0101
:1001800070914E0180914F01909150019B01AC0103
:100190000E94D0099B01AC01C501B4010E94410A33
:1001A0000E94B30AC114D104E104F10409F0D3C0E0
:1001B00062307105810591050CF0F2C01092550175
:1001C0001092560110925701109258011092450159
:1001D0001092460110924701109248011092650159
:1001E000109266011092670110926801DF91CF9121
:1001F0001F910F91FF90EF90DF90CF90BF90AF9045
:100200009F908F907F906F905F904F900895101601
:10021000110612061306DCF46C157D058E059F058C
:1002200024F4209133012111BBC09B01AC0188272C
:100230009927DC01821B930BA40BB50B80936501FE
:1002400090936601A0936701B0936801A9C001155E
:1002500011052105310509F4A3C06C157D058E0536
:100260009F050CF09DC080913301882309F498C04C
:1002700030952095109501951F4F2F4F3F4F0093BC
:10028000650110936601209367013093680188C06F
:10029000011511052105310509F482C0882499242E
:1002A00054018C189D08AE08BF08681579058A05A9
:1002B0009B050CF075C080913301811171C0D8CFBE
:1002C000C0906D01D0906E01E0906F01F0907001D0
:1002D000A7019601C701B6010E94D0092B013C017C
:1002E000C501B4010E94EB0A20E030E040E850E490
:1002F0000E94A00B20E030E040E85FE30E94D009BC
:100300009B01AC01C301B2010E94410A9B01AC01F7
:10031000C701B6010E94CF09D62FC72F6C01E0900C
:100320007101F090720100917301109174019701B5
:10033000A8010E949B0B18161CF4ED2EFC2E8601C2
:10034000C701D80180936D0190936E01A0936F0156
:10035000B09370014CC0009165011091660120912D
:100360006701309168011C141D041E041F040CF465
:100370004ECF10161106120613060CF089CF002777
:10038000112798010C191D092E093F0960177107E3
:10039000820793070CF049CF20913301211145CFFB
:1003A0008090650190906601A0906701B09068010F
:1003B00081149104A104B10409F082CF80916901F4
:1003C00090916A01A0916B01B0916C0180936D01D5
:1003D00090936E01A0936F01B093700181E01C14A3
:1003E0001D041E041F040CF080E0809333013FEFD6
:1003F000831A930AA30AB30A809265019092660158
:10040000A0926701B0926801C0906D01D0906E011A
:10041000E0906F01F0907001C701B6010E94BA0A26
:100420006093550170935601809357019093580142
:10043000A701960160E074E284E799E40E94410A12
:100440006093450170934601809347019093480162
:10045000209133012111CACE9058609345017093C9
:1004600046018093470190934801C0CE8F929F929E
:10047000AF92BF92CF92DF92EF92FF920F931F93B2
:10048000CF93DF938B01D82FC92F80904901909093
:100490004A01A0904B01B0904C0175016401F7FA3C
:1004A000F094F7F8F0949B01482F592FC701B6013B
:1004B0000E949B0B181674F098014D2F5C2FC501FC
:1004C000B4010E943C0A7501640187FD03C0680104
:1004D000ED2EFC2E20E030E0A901C701B6010E94FC
:1004E0003C0A81111DC010925501109256011092C4
:1004F000570110925801C0924501D0924601E092F6
:100500004701F0924801DF91CF911F910F91FF9029
:10051000EF90DF90CF90BF90AF909F908F90089515
:10052000A701960160E074E284E799E40E94410A21
:100530009F770E94BA0A6093550170935601809389
:10054000570190935801C1E020E030E0A901C701B4
:10055000B6010E949B0B18160CF0C0E0C09333014B
:10056000CACF80E480937C0080917A00806480937D
:100570007A0080917A0086FDFCCF8091780090917E
:1005800079000895833081F028F4813099F0823029
:10059000A9F008958730A9F08830C9F08430B1F40B
:1005A000809180008F7D03C0809180008F77809341
:1005B0008000089584B58F7784BD089584B58F7DBC
:1005C000FBCF8091B0008F778093B0000895809129
:1005D000B0008F7DF9CF1F93CF93DF93282F30E0AA
:1005E000F901E255FF4F8491F901E656FF4FD4918E
:1005F000F901EA57FF4FC491CC23A9F0162F8111BE
:100600000E94C202EC2FF0E0EE0FFF1FE458FF4FF4
:10061000A591B4918FB7F894EC91111108C0D095C1
:10062000DE23DC938FBFDF91CF911F910895DE2BE6
:10063000F8CFCF93DF9390E0FC01E656FF4F249173
:100640008A579F4FFC0184918823D1F090E0880F56
:10065000991FFC01EE58FF4FA591B491FC01E4589D
:10066000FF4FC591D49161110EC09FB7F8948C9142
:10067000E22FE0958E238C932881E223E8839FBFAD
:10068000DF91CF9108958FB7F894EC91E22BEC9322
:100690008FBFF6CFCF93DF93FC012381222359F143
:1006A000EC0161E084810E94190361E08D810E9468
:1006B00019038B81843011F08830B1F461E08E81B0
:1006C0000E94190361E08F810E9419038FA58F3F5B
:1006D00091F061E00E9419036EA581E068278FA563
:1006E000DF91CF910C94EB02833011F0863071F7DB
:1006F00061E08E81E9CFDF91CF910895CF93DF93B1
:10070000FC0123812223A9F0EC010190F081E02D6E
:100710000480F581E02D60E009958FA58F3F49F0B9
:1007200061E00E9419036EA58FA5DF91CF910C9413
:10073000EB02DF91CF910895DC01ED91FC912481D2
:100740003581477055276627772741505109610940
:100750007109473051056105710560F4FA01ED54E6
:10076000FC4F0C94A709BD03BF03C103C303C5031A
:10077000C703C90361E0F901099465E0FCCF64E0B7
:10078000FACF66E0F8CF62E0F6CF6AE0F4CF68E037
:10079000F2CF69E0F0CFCF93DF93EC01CB01BA0148
:1007A00026E030E040E050E00E94880962307105A8
:1007B0008105910589F16CF461157105810591053B
:1007C000D1F06130710581059105F9F0DF91CF918C
:1007D0000895643071058105910561F124F165305A
:1007E00071058105910591F7E881F9810480F58112
:1007F000E02D66E006C0E881F9810480F581E02DF6
:1008000064E0CE01DF91CF910994E881F981048001
:10081000F581E02D65E0F5CFE881F9810480F5816F
:10082000E02D61E0EECFE881F9810480F581E02DD3
:1008300063E0E7CFE881F9810480F581E02D62E093
:10084000E0CFDC01ED91FC910480F581E02D437057
:10085000552766277727423051056105710571F0EC
:10086000433051056105710559F04130510561056D
:10087000710511F065E0099466E0FDCF6AE0FBCFF9
:1008800069E0F9CFCF93DF93EC01CB01BA0123E00C
:1008900030E040E050E00E94880961307105810538
:1008A000910599F06230710581059105A9F0672BDA
:1008B000682B692BC1F4E881F9810480F581E02D72
:1008C00064E0CE01DF91CF910994E881F981048041
:1008D000F581E02D61E0F5CFE881F9810480F581B3
:1008E000E02D62E0EECFDF91CF910895DC01ED9134
:1008F000FC910480F581E02D43705527662777270A
:10090000423051056105710571F0433051056105B3
:10091000710559F0413051056105710511F062E032
:10092000099463E0FDCF61E0FBCF60E0F9CFCF93A6
:10093000DF93EC01E881F9810480F581E02D8A8163
:1009400060E0811162E0CE010995E881F9810480BF
:10095000F581E02D8A8161E0811163E0CE01099586
:100960008CA59DA58230910538F0880F991F880FBE
:10097000991F05970197F1F7E881F9810480F581C6
:10098000E02D8A8160E0811162E0CE01DF91CF919C
:100990000994CF93DF93EC0120E030E0A9016C894A
:1009A0007D898E899F890E949B0B18162CF4E8A9DB
:1009B000F9A9DF91CF910994EAA9FBA9FACFCF92C7
:1009C000DF92EF92FF920F931F93CF93DF93DC019F
:1009D0001396CC91C43039F0C83059F1C33019F0B6
:1009E000C63049F1C2E08C010C5F1F4FF12CE12CA5
:1009F000C62ED12CD1E0F8016481C6010E2C02C0B4
:100A0000959587950A94E2F780FD6D270F5F1F4F3C
:100A100080810E94EB02BFEFEB1AFB0AEC1658F341
:100A2000DF91CF911F910F91FF90EF90DF90CF90CA
:100A30000895C4E0D8CFC3E0D6CFDC011396EC9183
:100A40001397E93008F038C0F0E0E75DFA4F0C94F6
:100A5000A709320538053E0544054A055C055005E1
:100A60005C055605ED91FC910084F185E02D09941B
:100A7000ED91FC910284F385E02DF9CFED91FC918D
:100A80000484F585E02DF3CFED91FC910684F78584
:100A9000E02DEDCFED91FC910088F189E02DE7CFBD
:100AA000ED91FC910288F389E02DE1CFED91FC916D
:100AB0000488F589E02DDBCF0895CF92DF92EF9285
:100AC000FF928091550190915601A0915701B091EC
:100AD0005801892B8A2B8B2B31F480E0FF90EF900B
:100AE000DF90CF9008953FB7F89480912D019091B9
:100AF0002E01A0912F01B091300126B5A89B05C011
:100B00002F3F19F00196A11DB11D3FBFBA2FA92F8C
:100B1000982F88276C017D01C20ED11CE11CF11CAD
:100B200042E0CC0CDD1CEE1CFF1C4A95D1F78091F5
:100B3000590190915A01A0915B01B0915C01B701FC
:100B4000A601481B590B6A0B7B0B809155019091B4
:100B50005601A0915701B0915801481759076A07EB
:100B60007B0708F4BACF80913D0190913E01A0919E
:100B70003F01B091400120913301222309F10196F8
:100B8000A11DB11D80933D0190933E01A0933F01B3
:100B9000B093400140913D0150913E0160913F0171
:100BA0007091400181E391E00E941D05C0925901BE
:100BB000D0925A01E0925B01F0925C0181E08ECF0D
:100BC0000197A109B109DECF1F920F920FB60F92C4
:100BD00011242F933F938F939F93AF93BF93809153
:100BE000290190912A01A0912B01B0912C01309103
:100BF000280123E0230F2D3758F50196A11DB11DC3
:100C0000209328018093290190932A01A0932B011E
:100C1000B0932C0180912D0190912E01A0912F0174
:100C2000B09130010196A11DB11D80932D019093CB
:100C30002E01A0932F01B0933001BF91AF919F91EE
:100C40008F913F912F910F900FBE0F901F9018958D
:100C500026E8230F0296A11DB11DD2CFCF93DF93BB
:100C600000D000D0CDB7DEB7789484B5826084BD63
:100C700084B5816084BD85B5826085BD85B58160A0
:100C800085BD80916E00816080936E00109281001E
:100C900080918100826080938100809181008160D9
:100CA000809381008091800081608093800080919A
:100CB000B10084608093B1008091B0008160809326
:100CC000B00080917A00846080937A0080917A00ED
:100CD000826080937A0080917A00816080937A00AC
:100CE00080917A00806880937A001092C10060E061
:100CF00085E00E94190361E086E00E94190361E02B
:100D000087E00E94190384E08093600161E00E9403
:100D1000190360915F0121E06227809160010E94C8
:100D2000EB021092390110923A0131E030935F01E9
:100D300061E086E00E94EB0261E087E00E94EB0246
:100D400081E391E00E944A0320E030E04AEF54E45E
:100D50006091490170914A0180914B0190914C0141
:100D60000E943C0A882309F451C080E090E0AAEF79
:100D7000B4E48093490190934A01A0934B01B0934E
:100D80004C0180E090E0AAEFB3E48093710190936E
:100D90007201A0937301B093740160914501709149
:100DA00046018091470190914801009165011091A1
:100DB0006601209167013091680110161106120634
:100DC000130624F59B01AC010E94A00B6B017C0172
:100DD00060914D0170914E0180914F0190915001B1
:100DE0009B01AC010E94D0099B01AC01C701B60177
:100DF0000E94410A0E94B30A6093650170936601E4
:100E000080936701909368010E948C00C0901C0140
:100E1000D0901D01E0901E01F0901F01209145012E
:100E2000309146014091470150914801C701B601F8
:100E30000E943C0A882321F0C701B6010E943602B5
:100E40002FB7F8948091290190912A01A0912B014C
:100E5000B0912C012FBF8093200190932101A0938A
:100E60002201B093230100E010E08FB7F894409086
:100E7000290150902A0160902B0170902C018FBFA6
:100E80000E945D050E945D050E945D050E945D0552
:100E900020900001309001010E94B102BC01990F25
:100EA000880B990B0E94EB0A20E030E040E450E40C
:100EB0000E94CF0920E030E0A9010E949B0B812C09
:100EC000912C5401181684F40E94B102BC01990FB0
:100ED000880B990B0E94EB0A20E030E040E450E4DC
:100EE0000E94CF094B015C010E945D050E945D05D7
:100EF0000E945D050E945D0580912401909125016D
:100F0000A0912601B0912701A3019201281B390B62
:100F10004A0B5B0BDA01C901883E9340A105B1057C
:100F2000F0F0E3EBF0E08491EFE9F0E0F490EBE82F
:100F3000F0E0E490E110C1C08091000190910101C6
:100F400091958195910990930101809300014092C0
:100F500024015092250160922601709227010E947F
:100F60005D050E945D050E945D050E945D05809102
:100F7000200190912101A0912201B0912301A301B0
:100F80009201281B390B4A0B5B0BDA01C90145970B
:100F9000A105B10508F482C0C0901C01D0901D01CC
:100FA000E0901E01F0901F0140ED57E0249EB0013B
:100FB000259E700D349E700D112425E0660F771F5D
:100FC0002A95E1F7072E000C880B990B0E94EB0A7B
:100FD000A50194010E94A00B20E030E04FE754E40B
:100FE0000E94410AA70196010E94CF094B015C01B2
:100FF00020E030E040EA53E40E943C0A87FF6DC0E5
:1010000020E030E040EA53ECC501B4010E949B0BA4
:10101000181634F0812C912C90EAA92E93ECB92E5D
:10102000A5019401C701B6010E94D00969837A83A2
:101030008B839C830E945D050E945D050E945D0577
:101040000E945D05C0901C01D0901D01E0901E0122
:10105000F0901F01A701960169817A818B819C81A3
:101060000E94CF094B015C0120E030E0A9010E9401
:101070009B0B18160CF038C02CEA35EC47E257E30E
:10108000C501B4010E949B0B1816C4F140922001C7
:101090005092210160922201709223010E945D050D
:1010A0000E945D050E945D050E945D050115110508
:1010B00009F4DBCE0E940000D8CE81110E94C2024A
:1010C000EE2DF0E0EE0FFF1FE859FF4FA591B49110
:1010D0008C91F82209F430CF42CF812C912C80EAF8
:1010E000A82E83E4B82E9CCF2CEA35EC47E257EBD0
:1010F000C501B4010E943C0A87FFC8CF2091450179
:10110000309146014091470150914801C701B60115
:101110000E943C0A882321F0C701B6010E943602D2
:1011200089819A81AB81BC8180931C0190931D01C0
:10113000A0931E01B0931F01A9CF8F929F92AF92EF
:10114000BF92CF92DF92EF92FF9286E091E0909370
:1011500032018093310181E08093340110923D018E
:1011600010923E0110923F011092400110924101F5
:1011700010924201109243011092440110924501D5
:10118000109246011092470110924801C12CD12CB7
:1011900080E8E82E8FE3F82EC0924901D0924A01F0
:1011A000E0924B01F0924C0110924D0110924E01D1
:1011B00010924F0110925001C0925101D0925201F1
:1011C000E0925301F0925401109255011092560191
:1011D000109257011092580181E090E090935E01C7
:1011E00080935D018FEF80936001109259011092FE
:1011F0005A0110925B0110925C0183E080933501EB
:1012000082E08093360184E08093370185E080930B
:10121000380110925F0110926501109266011092E0
:101220006701109268011092690110926A01109290
:101230006B0110926C0110926D0110926E01109270
:101240006F0110927001C0927101D0927201E09210
:101250007301F092740110923301109239011092CF
:101260003A0110923B0110923C0181E391E00E940F
:101270004A0380904D0190904E01A0904F01B09094
:101280005001A7019601C501B4010E943C0A8823C0
:10129000B1F1609165017091660180916701909153
:1012A00068010E94EB0AA50194010E94A00B0E9414
:1012B000B30A609365017093660180936701909310
:1012C000680186E896E6A9E6B9E4809369019093FF
:1012D0006A01A0936B01B0936C01C0924D01D09252
:1012E0004E01E0924F01F0925001FF90EF90DF909D
:1012F000CF90BF90AF909F908F900C948C00FF90F8
:10130000EF90DF90CF90BF90AF909F908F90089517
:10131000052E97FB1EF400940E949F0957FD07D0ED
:101320000E94AD0907FC03D04EF40C949F09509520
:101330004095309521953F4F4F4F5F4F08959095C1
:101340008095709561957F4F8F4F9F4F0895EE0F59
:10135000FF1F0590F491E02D0994A1E21A2EAA1B1B
:10136000BB1BFD010DC0AA1FBB1FEE1FFF1FA21755
:10137000B307E407F50720F0A21BB30BE40BF50B52
:10138000661F771F881F991F1A9469F760957095DB
:10139000809590959B01AC01BD01CF0108955058F7
:1013A000BB27AA270E94E7090C94610B0E94530BEC
:1013B00038F00E945A0B20F039F49F3F19F426F4BC
:1013C0000C94500B0EF4E095E7FB0C944A0BE92FBC
:1013D0000E94720B58F3BA176207730784079507C8
:1013E00020F079F4A6F50C94940B0EF4E0950B2EF6
:1013F000BA2FA02D0B01B90190010C01CA01A00167
:101400001124FF27591B99F0593F50F4503E68F1C1
:101410001A16F040A22F232F342F4427585FF3CF02
:10142000469537952795A795F0405395C9F77EF4D3
:101430001F16BA0B620B730B840BBAF09150A1F01C
:10144000FF0FBB1F661F771F881FC2F70EC0BA0FA2
:10145000621F731F841F48F4879577956795B7952A
:10146000F7959E3F08F0B0CF9395880F08F0992725
:10147000EE0F9795879508950E94260B08F481E05A
:1014800008950E94550A0C94610B0E945A0B58F063
:101490000E94530B40F029F45F3F29F00C944A0B53
:1014A00051110C94950B0C94500B0E94720B68F325
:1014B0009923B1F3552391F3951B550BBB27AA270D
:1014C00062177307840738F09F5F5F4F220F331F47
:1014D000441FAA1FA9F335D00E2E3AF0E0E832D00F
:1014E00091505040E695001CCAF72BD0FE2F29D012
:1014F000660F771F881FBB1F261737074807AB07E4
:10150000B0E809F0BB0B802DBF01FF2793585F4F58
:101510003AF09E3F510578F00C944A0B0C94950BD1
:101520005F3FE4F3983ED4F3869577956795B7953A
:10153000F7959F5FC9F7880F911D9695879597F945
:101540000895E1E0660F771F881FBB1F62177307BE
:101550008407BA0720F0621B730B840BBA0BEE1FD3
:1015600088F7E09508950E94BA0A6894B1110C9426
:10157000950B08950E947A0B88F09F5798F0B92F29
:101580009927B751B0F0E1F0660F771F881F991FB8
:101590001AF0BA95C9F714C0B13091F00E94940BBB
:1015A000B1E008950C94940B672F782F8827B85FCB
:1015B00039F0B93FCCF3869577956795B395D9F710
:1015C0003EF490958095709561957F4F8F4F9F4F1A
:1015D0000895E89409C097FB3EF490958095709526
:1015E00061957F4F8F4F9F4F9923A9F0F92F96E96F
:1015F000BB279395F695879577956795B795F111E4
:10160000F8CFFAF4BB0F11F460FF1BC06F5F7F4F80
:101610008F4F9F4F16C0882311F096E911C0772392
:1016200021F09EE8872F762F05C0662371F096E89B
:10163000862F70E060E02AF09A95660F771F881F6A
:10164000DAF7880F9695879597F90895990F00080E
:10165000550FAA0BE0E8FEEF16161706E807F90784
:10166000C0F012161306E407F50798F0621B730B1F
:10167000840B950B39F40A2661F0232B242B252BA0
:1016800021F408950A2609F4A140A6958FEF811D43
:10169000811D089597F99F6780E870E060E00895E4
:1016A0009FEF80EC089500240A941616170618067A
:1016B0000906089500240A94121613061406050656
:1016C0000895092E0394000C11F4882352F0BB0FE7
:1016D00040F4BF2B11F460FF04C06F5F7F4F8F4F4A
:1016E0009F4F089557FD9058440F551F59F05F3F85
:1016F00071F04795880F97FB991F61F09F3F79F034
:1017000087950895121613061406551FF2CF4695B5
:10171000F1DF08C0161617061806991FF1CF869537
:101720007105610508940895E894BB27662777271B
:10173000CB0197F908950E94260B08F48FEF0895C6
:101740000E94B30B0C94610B0E94530B38F00E9463
:101750005A0B20F0952311F00C944A0B0C94500B6B
:1017600011240C94950B0E94720B70F3959FC1F39A
:10177000950F50E0551F629FF001729FBB27F00D3F
:10178000B11D639FAA27F00DB11DAA1F649F662794
:10179000B00DA11D661F829F2227B00DA11D621FE3
:1017A000739FB00DA11D621F839FA00D611D221F9D
:1017B000749F3327A00D611D231F849F600D211D81
:1017C000822F762F6A2F11249F5750409AF0F1F004
:1017D00088234AF0EE0FFF1FBB1F661F771F881F6D
:1017E00091505040A9F79E3F510580F00C944A0B50
:1017F0000C94950B5F3FE4F3983ED4F38695779570
:101800006795B795F795E7959F5FC1F7FE2B880F12
:0E181000911D9695879597F90895F894FFCF4E
:10181E000100000000007E034A03DF041D05C90419
:0C182E009704760442042104CB039C03C1
:00000001FF
